{
  "contractName": "IPFSFileStorage",
  "abi": [
    {
      "constant": false,
      "inputs": [
        {
          "name": "hash",
          "type": "string"
        }
      ],
      "name": "set",
      "outputs": [],
      "payable": false,
      "stateMutability": "nonpayable",
      "type": "function"
    },
    {
      "constant": true,
      "inputs": [],
      "name": "get",
      "outputs": [
        {
          "name": "",
          "type": "string"
        }
      ],
      "payable": false,
      "stateMutability": "view",
      "type": "function"
    }
  ],
  "bytecode": "0x608060405234801561001057600080fd5b506102d7806100206000396000f30060806040526004361061004c576000357c0100000000000000000000000000000000000000000000000000000000900463ffffffff1680634ed3885e146100515780636d4ce63c146100ba575b600080fd5b34801561005d57600080fd5b506100b8600480360381019080803590602001908201803590602001908080601f016020809104026020016040519081016040528093929190818152602001838380828437820191505050505050919291929050505061014a565b005b3480156100c657600080fd5b506100cf610164565b6040518080602001828103825283818151815260200191508051906020019080838360005b8381101561010f5780820151818401526020810190506100f4565b50505050905090810190601f16801561013c5780820380516001836020036101000a031916815260200191505b509250505060405180910390f35b8060009080519060200190610160929190610206565b5050565b606060008054600181600116156101000203166002900480601f0160208091040260200160405190810160405280929190818152602001828054600181600116156101000203166002900480156101fc5780601f106101d1576101008083540402835291602001916101fc565b820191906000526020600020905b8154815290600101906020018083116101df57829003601f168201915b5050505050905090565b828054600181600116156101000203166002900490600052602060002090601f016020900481019282601f1061024757805160ff1916838001178555610275565b82800160010185558215610275579182015b82811115610274578251825591602001919060010190610259565b5b5090506102829190610286565b5090565b6102a891905b808211156102a457600081600090555060010161028c565b5090565b905600a165627a7a72305820ccadc372d90c785a94fd6b9a891a7a7539d64a216a95a28dbd206f1eac12873f0029",
  "source": "pragma solidity ^0.4.24;\r\n\r\ncontract IPFSFileStorage {\r\n    string ipfsHash;\r\n    struct Student {\r\n        string name;\r\n        string phone;\r\n        string email;\r\n    }\r\n    struct Address {\r\n        string addressLine1;\r\n        string addressLine2;\r\n        string city;\r\n        string state;\r\n        string country;\r\n    }\r\n    struct University {\r\n        string name;\r\n    }\r\n\r\n    function set(string hash) public {\r\n        ipfsHash = hash;\r\n    }\r\n\r\n    function get() public view returns (string) {\r\n        return ipfsHash;\r\n    }\r\n}",
  "sourcePath": "C:\\apps\\ethereum\\certificates\\contracts\\IPFSFileStorage.sol",
  "compiler": {
    "name": "solc",
    "version": "0.4.24+commit.e67f0147.Emscripten.clang"
  },
  "schemaVersion": "2.0.1",
  "updatedAt": "2018-11-26T19:42:37.389Z"
}